{
  "_format": "hh-sol-artifact-1",
  "contractName": "BuyMeACoffee",
  "sourceName": "contracts/BuyMeACoffee.sol",
  "abi": [
    {
      "inputs": [],
      "stateMutability": "nonpayable",
      "type": "constructor"
    },
    {
      "anonymous": false,
      "inputs": [
        {
          "indexed": true,
          "internalType": "address",
          "name": "_sender",
          "type": "address"
        },
        {
          "indexed": false,
          "internalType": "string",
          "name": "name",
          "type": "string"
        },
        {
          "indexed": false,
          "internalType": "string",
          "name": "_message",
          "type": "string"
        },
        {
          "indexed": false,
          "internalType": "uint256",
          "name": "_timestamp",
          "type": "uint256"
        }
      ],
      "name": "NewCoffee",
      "type": "event"
    },
    {
      "inputs": [
        {
          "internalType": "string",
          "name": "name",
          "type": "string"
        },
        {
          "internalType": "string",
          "name": "message",
          "type": "string"
        }
      ],
      "name": "buyCoffee",
      "outputs": [],
      "stateMutability": "payable",
      "type": "function"
    },
    {
      "inputs": [],
      "name": "coffeeId",
      "outputs": [
        {
          "internalType": "uint256",
          "name": "",
          "type": "uint256"
        }
      ],
      "stateMutability": "view",
      "type": "function"
    },
    {
      "inputs": [
        {
          "internalType": "uint256",
          "name": "_id",
          "type": "uint256"
        }
      ],
      "name": "getAllCoffee",
      "outputs": [
        {
          "components": [
            {
              "internalType": "address",
              "name": "sender",
              "type": "address"
            },
            {
              "internalType": "string",
              "name": "name",
              "type": "string"
            },
            {
              "internalType": "uint256",
              "name": "timestamp",
              "type": "uint256"
            },
            {
              "internalType": "string",
              "name": "message",
              "type": "string"
            }
          ],
          "internalType": "struct BuyMeACoffee.BuyCoffee[]",
          "name": "c",
          "type": "tuple[]"
        }
      ],
      "stateMutability": "view",
      "type": "function"
    },
    {
      "inputs": [],
      "name": "withdrawCoffeTips",
      "outputs": [],
      "stateMutability": "nonpayable",
      "type": "function"
    }
  ],
  "bytecode": "0x608060405234801561001057600080fd5b50336000806101000a81548173ffffffffffffffffffffffffffffffffffffffff021916908373ffffffffffffffffffffffffffffffffffffffff16021790555033600160006101000a81548173ffffffffffffffffffffffffffffffffffffffff021916908373ffffffffffffffffffffffffffffffffffffffff160217905550611018806100a16000396000f3fe60806040526004361061003f5760003560e01c806314e1e05514610044578063204206e11461006f578063b84722ee1461008b578063f8cd4b07146100a2575b600080fd5b34801561005057600080fd5b506100596100df565b60405161006691906105f4565b60405180910390f35b61008960048036038101906100849190610769565b6100e5565b005b34801561009757600080fd5b506100a0610220565b005b3480156100ae57600080fd5b506100c960048036038101906100c4919061080d565b610310565b6040516100d69190610a35565b60405180910390f35b60035481565b60003411610128576040517f08c379a000000000000000000000000000000000000000000000000000000000815260040161011f90610ab4565b60405180910390fd5b6003600081548092919061013b90610b03565b9190505550600060026000600354815260200190815260200160002090508181600301908161016a9190610d57565b508281600101908161017c9190610d57565b50338160000160006101000a81548173ffffffffffffffffffffffffffffffffffffffff021916908373ffffffffffffffffffffffffffffffffffffffff1602179055504281600201819055503373ffffffffffffffffffffffffffffffffffffffff167facaf0a2f282f13a941c6f4f59a57886dbe6ed32ab15976fa2e7f5a04170fdaaf84844260405161021393929190610e62565b60405180910390a2505050565b3373ffffffffffffffffffffffffffffffffffffffff16600160009054906101000a900473ffffffffffffffffffffffffffffffffffffffff1673ffffffffffffffffffffffffffffffffffffffff16146102b0576040517f08c379a00000000000000000000000000000000000000000000000000000000081526004016102a790610ef3565b60405180910390fd5b60008054906101000a900473ffffffffffffffffffffffffffffffffffffffff1673ffffffffffffffffffffffffffffffffffffffff166108fc479081150290604051600060405180830381858888f1935050505061030e57600080fd5b565b6060600354821115610357576040517f08c379a000000000000000000000000000000000000000000000000000000000815260040161034e90610f5f565b60405180910390fd5b8167ffffffffffffffff8111156103715761037061063e565b5b6040519080825280602002602001820160405280156103aa57816020015b61039761059d565b81526020019060019003908161038f5790505b50905060005b8281101561059757600260006001836103c99190610f7f565b81526020019081526020016000206040518060800160405290816000820160009054906101000a900473ffffffffffffffffffffffffffffffffffffffff1673ffffffffffffffffffffffffffffffffffffffff1673ffffffffffffffffffffffffffffffffffffffff16815260200160018201805461044890610b7a565b80601f016020809104026020016040519081016040528092919081815260200182805461047490610b7a565b80156104c15780601f10610496576101008083540402835291602001916104c1565b820191906000526020600020905b8154815290600101906020018083116104a457829003601f168201915b50505050508152602001600282015481526020016003820180546104e490610b7a565b80601f016020809104026020016040519081016040528092919081815260200182805461051090610b7a565b801561055d5780601f106105325761010080835404028352916020019161055d565b820191906000526020600020905b81548152906001019060200180831161054057829003601f168201915b50505050508152505082828151811061057957610578610fb3565b5b6020026020010181905250808061058f90610b03565b9150506103b0565b50919050565b6040518060800160405280600073ffffffffffffffffffffffffffffffffffffffff1681526020016060815260200160008152602001606081525090565b6000819050919050565b6105ee816105db565b82525050565b600060208201905061060960008301846105e5565b92915050565b6000604051905090565b600080fd5b600080fd5b600080fd5b600080fd5b6000601f19601f8301169050919050565b7f4e487b7100000000000000000000000000000000000000000000000000000000600052604160045260246000fd5b6106768261062d565b810181811067ffffffffffffffff821117156106955761069461063e565b5b80604052505050565b60006106a861060f565b90506106b4828261066d565b919050565b600067ffffffffffffffff8211156106d4576106d361063e565b5b6106dd8261062d565b9050602081019050919050565b82818337600083830152505050565b600061070c610707846106b9565b61069e565b90508281526020810184848401111561072857610727610628565b5b6107338482856106ea565b509392505050565b600082601f8301126107505761074f610623565b5b81356107608482602086016106f9565b91505092915050565b600080604083850312156107805761077f610619565b5b600083013567ffffffffffffffff81111561079e5761079d61061e565b5b6107aa8582860161073b565b925050602083013567ffffffffffffffff8111156107cb576107ca61061e565b5b6107d78582860161073b565b9150509250929050565b6107ea816105db565b81146107f557600080fd5b50565b600081359050610807816107e1565b92915050565b60006020828403121561082357610822610619565b5b6000610831848285016107f8565b91505092915050565b600081519050919050565b600082825260208201905092915050565b6000819050602082019050919050565b600073ffffffffffffffffffffffffffffffffffffffff82169050919050565b600061089182610866565b9050919050565b6108a181610886565b82525050565b600081519050919050565b600082825260208201905092915050565b60005b838110156108e15780820151818401526020810190506108c6565b60008484015250505050565b60006108f8826108a7565b61090281856108b2565b93506109128185602086016108c3565b61091b8161062d565b840191505092915050565b61092f816105db565b82525050565b600060808301600083015161094d6000860182610898565b506020830151848203602086015261096582826108ed565b915050604083015161097a6040860182610926565b506060830151848203606086015261099282826108ed565b9150508091505092915050565b60006109ab8383610935565b905092915050565b6000602082019050919050565b60006109cb8261083a565b6109d58185610845565b9350836020820285016109e785610856565b8060005b85811015610a235784840389528151610a04858261099f565b9450610a0f836109b3565b925060208a019950506001810190506109eb565b50829750879550505050505092915050565b60006020820190508181036000830152610a4f81846109c0565b905092915050565b600082825260208201905092915050565b7f546970206d7573742062652067726561746572207468616e207a65726f000000600082015250565b6000610a9e601d83610a57565b9150610aa982610a68565b602082019050919050565b60006020820190508181036000830152610acd81610a91565b9050919050565b7f4e487b7100000000000000000000000000000000000000000000000000000000600052601160045260246000fd5b6000610b0e826105db565b91507fffffffffffffffffffffffffffffffffffffffffffffffffffffffffffffffff8203610b4057610b3f610ad4565b5b600182019050919050565b7f4e487b7100000000000000000000000000000000000000000000000000000000600052602260045260246000fd5b60006002820490506001821680610b9257607f821691505b602082108103610ba557610ba4610b4b565b5b50919050565b60008190508160005260206000209050919050565b60006020601f8301049050919050565b600082821b905092915050565b600060088302610c0d7fffffffffffffffffffffffffffffffffffffffffffffffffffffffffffffffff82610bd0565b610c178683610bd0565b95508019841693508086168417925050509392505050565b6000819050919050565b6000610c54610c4f610c4a846105db565b610c2f565b6105db565b9050919050565b6000819050919050565b610c6e83610c39565b610c82610c7a82610c5b565b848454610bdd565b825550505050565b600090565b610c97610c8a565b610ca2818484610c65565b505050565b5b81811015610cc657610cbb600082610c8f565b600181019050610ca8565b5050565b601f821115610d0b57610cdc81610bab565b610ce584610bc0565b81016020851015610cf4578190505b610d08610d0085610bc0565b830182610ca7565b50505b505050565b600082821c905092915050565b6000610d2e60001984600802610d10565b1980831691505092915050565b6000610d478383610d1d565b9150826002028217905092915050565b610d60826108a7565b67ffffffffffffffff811115610d7957610d7861063e565b5b610d838254610b7a565b610d8e828285610cca565b600060209050601f831160018114610dc15760008415610daf578287015190505b610db98582610d3b565b865550610e21565b601f198416610dcf86610bab565b60005b82811015610df757848901518255600182019150602085019450602081019050610dd2565b86831015610e145784890151610e10601f891682610d1d565b8355505b6001600288020188555050505b505050505050565b6000610e34826108a7565b610e3e8185610a57565b9350610e4e8185602086016108c3565b610e578161062d565b840191505092915050565b60006060820190508181036000830152610e7c8186610e29565b90508181036020830152610e908185610e29565b9050610e9f60408301846105e5565b949350505050565b7f4e6f74206f776e65720000000000000000000000000000000000000000000000600082015250565b6000610edd600983610a57565b9150610ee882610ea7565b602082019050919050565b60006020820190508181036000830152610f0c81610ed0565b9050919050565b7f4e6f6e2d6578697374656e742069640000000000000000000000000000000000600082015250565b6000610f49600f83610a57565b9150610f5482610f13565b602082019050919050565b60006020820190508181036000830152610f7881610f3c565b9050919050565b6000610f8a826105db565b9150610f95836105db565b9250828201905080821115610fad57610fac610ad4565b5b92915050565b7f4e487b7100000000000000000000000000000000000000000000000000000000600052603260045260246000fdfea264697066735822122024f16b6c9ab6a484d25c4a4725bbe2f5e4e6cffa4635eb4a553c2fb6ed5f683d64736f6c63430008120033",
  "linkReferences": {},
  "deployedLinkReferences": {}
}